:100000000C945D000C9485000C9485000C94850084
:100010000C9485000C9485000C9485000C9485004C
:100020000C9485000C9485000C9485000C9485003C
:100030000C9485000C9485000C9485000C9485002C
:100040000C940A020C9485000C947A020C945402CD
:100050000C9485000C9485000C9485000C9485000C
:100060000C9485000C9485000000000025002800F9
:100070002B0000000008000201000003040700003C
:1000800000000000000000000000240027002A00FB
:10009000010204081020408001020408102001021F
:1000A00004081020040404040404040402020202EC
:1000B0000202030303030303CB0211241FBECFEF8D
:1000C000D8E0DEBFCDBF11E0A0E0B1E0E6E9FFE09F
:1000D00002C005900D92A232B107D9F721E0A2E249
:1000E000B1E001C01D92A23DB207E1F710E0CDE5FD
:1000F000D0E004C02197FE010E948705CC35D107CE
:10010000C9F70E949E030C94C9070C940000AF929B
:10011000BF92CF92DF92EF92FF920F931F93CF93F4
:10012000DF936C017B018B01040F151FEB015E0156
:10013000AE18BF08C017D10759F06991D601ED91EB
:10014000FC910190F081E02DC6010995892B79F78A
:10015000C501DF91CF911F910F91FF90EF90DF903C
:10016000CF90BF90AF900895FC01538D448D252F03
:1001700030E0842F90E0821B930B541710F0CF9641
:10018000089501970895FC01918D828D981761F073
:10019000A28DAE0FBF2FB11D5D968C91928D9F5F8A
:1001A0009F73928F90E008958FEF9FEF0895FC0169
:1001B000918D828D981731F0828DE80FF11D858D1C
:1001C00090E008958FEF9FEF0895FC01918D228DAF
:1001D000892F90E0805C9F4F821B91098F73992734
:1001E00008958BE291E00E94E50021E0892B09F45B
:1001F00020E0822F089580E090E0892B29F00E9472
:10020000F10081110C9400000895FC01A48DA80F49
:10021000B92FB11DA35ABF4F2C91848D90E0019648
:100220008F739927848FA689B7892C93A089B18968
:100230008C91837080648C93938D848D981306C009
:100240000288F389E02D80818F7D80830895EF926D
:10025000FF920F931F93CF93DF93EC0181E0888F80
:100260009B8D8C8D98131AC0E889F989808185FF50
:1002700015C09FB7F894EE89FF896083E889F989F2
:1002800080818370806480839FBF81E090E0DF91F4
:10029000CF911F910F91FF90EF900895F62E0B8D47
:1002A00010E00F5F1F4F0F731127E02E8C8D8E1102
:1002B0000CC00FB607FCFACFE889F989808185FF69
:1002C000F5CFCE010E940501F1CFEB8DEC0FFD2F94
:1002D000F11DE35AFF4FF0829FB7F8940B8FEA8924
:1002E000FB8980818062CFCFCF93DF93EC01888D33
:1002F0008823B9F0AA89BB89E889F9898C9185FDA1
:1003000003C0808186FD0DC00FB607FCF7CF8C912E
:1003100085FFF2CF808185FFEDCFCE010E940501E0
:10032000E9CFDF91CF9108958EBD00000DB407FE97
:10033000FDCF8EB508952A981999FECF0E94940199
:1003400082E08A95F1F700C02A9A0895CF93C62FCC
:100350002A9880650E94940180E00E9494018C2F6D
:100360000E94940182E08A95F1F700C02A9ACF9109
:100370000895FC0101900020E9F73197AF01481B77
:10038000590BBC018BE291E00C9487008F929F92F5
:10039000AF92BF920F931F93CF93DF93CDB7DEB78A
:1003A000A1970FB6F894DEBF0FBECDBF19A24230A1
:1003B00008F44AE08E010F5D1F4F842E912CB12C62
:1003C000A12CA50194010E946505E62FB901CA017F
:1003D000EA30F4F4E05DD801EE938D01232B242B59
:1003E000252B79F790E080E0109719F0CD010E945D
:1003F000B901A1960FB6F894DEBF0FBECDBFDF9155
:10040000CF911F910F91BF90AF909F908F900895C3
:10041000E95CE1CF1F920F920FB60F9211242F9338
:100420003F938F939F93AF93BF93809127019091B8
:100430002801A0912901B0912A013091260123E0E1
:10044000230F2D3758F50196A11DB11D20932601CC
:100450008093270190932801A0932901B0932A014A
:100460008091220190912301A0912401B091250156
:100470000196A11DB11D8093220190932301A093A9
:100480002401B0932501BF91AF919F918F913F912E
:100490002F910F900FBE0F901F90189526E8230FF5
:1004A0000296A11DB11DD2CF1F920F920FB60F92CF
:1004B00011242F933F934F935F936F937F938F9369
:1004C0009F93AF93BF93EF93FF938BE291E00E94D2
:1004D0000501FF91EF91BF91AF919F918F917F9116
:1004E0006F915F914F913F912F910F900FBE0F90A1
:1004F0001F9018951F920F920FB60F9211242F93F1
:100500008F939F93EF93FF93E0913B01F0913C0118
:100510008081E0914101F091420182FD1BC09081F8
:10052000809144018F5F8F7320914501821741F0C4
:10053000E0914401F0E0E55DFE4F958F809344012A
:10054000FF91EF919F918F912F910F900FBE0F9080
:100550001F9018958081F4CF90E0FC01E057FF4F89
:1005600024918C559F4FFC018491882399F090E051
:10057000880F991FFC01EA57FF4FA591B491FC0128
:10058000E859FF4F859194918FB7F894EC91E22B45
:10059000EC938FBF0895CF9310922E0110922D01EE
:1005A00088EE93E0A0E0B0E080932F0190933001BB
:1005B000A0933101B093320184E091E090932C013B
:1005C00080932B0185EC90E0909338018093370164
:1005D00084EC90E090933A018093390180EC90E0B4
:1005E00090933C0180933B0181EC90E090933E011D
:1005F00080933D0182EC90E09093400180933F0115
:1006000086EC90E090934201809341011092440166
:100610001092450110924601109247012198229AAA
:1006200080E090E0A0E2B0E48093CA019093CB0117
:10063000A093CC01B093CD0180E090E0A0E8BFE3AF
:100640008093CE019093CF01A093D001B093D101BC
:10065000CFB7F8948091C801811144C08EEA90E030
:10066000FC0124914AE950E0FA013491E22FF0E0D4
:10067000EE0FFF1FEA57FF4FA591B4912C91322343
:1006800011F5ECE7F0E02491FA014491FC0194911A
:100690009923C9F0222349F02330C9F170F52130A4
:1006A00009F43BC0223009F43CC0E92FF0E0EE0F22
:1006B000FF1FE859FF4FA591B4918FB7F8949C9113
:1006C000492B4C938FBF8AE00E94AC028CB58061AD
:1006D0008CBD8CB580648CBD8DE00E94AC028BE03B
:1006E0000E94AC028091C8018F5F8093C801CFBF88
:1006F00085E58CBD1DBCCF9108952730A9F0283029
:10070000C9F0243091F6809180008F7D03C08091E4
:1007100080008F7780938000C8CF84B58F7784BDA9
:10072000C4CF84B58F7DFBCF8091B0008F7780934D
:10073000B000BBCF8091B0008F7DF9CF789484B5A5
:10074000826084BD84B5816084BD85B5826085BDCD
:1007500085B5816085BD80916E00816080936E005B
:10076000109281008091810082608093810080914D
:1007700081008160809381008091800081608093FE
:1007800080008091B10084608093B1008091B000BE
:1007900081608093B00080917A00846080937A00B9
:1007A00080917A00826080937A0080917A008160E3
:1007B00080937A0080917A00806880937A0010920A
:1007C000C100E0913B01F0913C0182E08083E09127
:1007D0003701F09138011082E0913901F0913A012E
:1007E00080E1808310924301E0913F01F09140014C
:1007F00086E08083E0913D01F0913E01808180613F
:100800008083E0913D01F0913E018081886080838A
:10081000E0913D01F0913E01808180688083E0910C
:100820003D01F0913E0180818F7D808381E0809346
:10083000C9018FE00E949B0163E083E00E94A60152
:100840002A9882E10E94940180E00E94940182E44F
:100850008A95F1F700C080E00E94940192E09A9599
:10086000F1F700C02A9A682F687F82E00E94A601F3
:1008700080EF0E949B011999FECFC0E0D0E019994A
:10088000FECF2A9861E081E00E94A6018CEF0E94D1
:100890009B0180E00E949B012A9A2A9881E00E9495
:1008A000940182E48A95F1F700C080E00E949401EF
:1008B000C82E80E00E949401182F80E00E949401CD
:1008C000D12CF12CE12C7601DD24CC24412F50E0F9
:1008D00070E060E0762F652F542F4427C40ED51E9C
:1008E000E61EF71EC80ED11CE11CF11CE7FE02C07B
:1008F000FF24FA942A9A6091CA017091CB018091E9
:10090000CC019091CD019B01AC010E948E054B0161
:100910005C016091C90170E090E080E00E94A00657
:100920009B01AC01C501B4010E94FF054B015C01B4
:10093000C701B6010E94A2062EEF3FEF4FEF5AE427
:100940000E94FF059B01AC01C501B4010E9457073D
:100950002091CE013091CF014091D0015091D10131
:100960000E9457076B017C014B015C01AC019B01AC
:100970000E94C407882399F082E191E00E94B901A6
:100980008EE191E00E94B901209709F478CF0E948E
:10099000F100882309F473CF0E94000070CF260174
:1009A0003701E89477F82FEF3FEF4FE75FE7C30198
:1009B000B2010E94C40781110DC02FEF3FEF4FE736
:1009C0005FE7C301B2010E94FA0518161CF486E124
:1009D00091E0D4CF2FEF3FEF4FE75FE4C701B601BF
:1009E0000E94520718161CF48AE191E0C7CF2FEF3E
:1009F0003FEF4FE75FECC701B6010E94FA0587FDA4
:100A0000F3CF20E030E0A901C701B6010E94FA054A
:100A100087FF0BC06DE28BE291E00E942701460147
:100A20005701B7FAB094B7F8B0941AE060E070E0FC
:100A300080E09FE320E030E040E251E40E94FF05C7
:100A40001150C1F7A50194010E948E056B017C0134
:100A50000E9471064B015C010E94A0069B01AC0143
:100A6000C701B6010E948D056B017C014AE0C501FA
:100A7000B4010E94C6016EE28BE291E00E94270160
:100A80001BE0115009F47CCF20E030E040E251E45B
:100A9000C701B6010E9457074B015C010E94710615
:100AA0006B01F12CE12C4AE0C701B6010E94C6019E
:100AB000C701B6010E94A0069B01AC01C501B401AB
:100AC0000E948D056B017C01DCCFA1E21A2EAA1BCE
:100AD000BB1BFD010DC0AA1FBB1FEE1FFF1FA217EE
:100AE000B307E407F50720F0A21BB30BE40BF50BEB
:100AF000661F771F881F991F1A9469F76095709574
:100B0000809590959B01AC01BD01CF010895EE0F3A
:100B1000FF1F0590F491E02D09945058BB27AA2798
:100B20000E94A5050C9418070E940A0738F00E943D
:100B3000110720F039F49F3F19F426F40C940707AD
:100B40000EF4E095E7FB0C940107E92F0E942907BA
:100B500058F3BA17620773078407950720F079F4F2
:100B6000A6F50C944B070EF4E0950B2EBA2FA02D92
:100B70000B01B90190010C01CA01A0011124FF274A
:100B8000591B99F0593F50F4503E68F11A16F04045
:100B9000A22F232F342F4427585FF3CF4695379544
:100BA0002795A795F0405395C9F77EF41F16BA0B09
:100BB000620B730B840BBAF09150A1F0FF0FBB1FB7
:100BC000661F771F881FC2F70EC0BA0F621F731F00
:100BD000841F48F4879577956795B795F7959E3F5D
:100BE00008F0B0CF9395880F08F09927EE0F9795EE
:100BF000879508950E94DD0608F481E008950E941B
:100C000013060C9418070E94110758F00E940A0757
:100C100040F029F45F3F29F00C94010751110C9426
:100C20004C070C9407070E94290768F39923B1F336
:100C3000552391F3951B550BBB27AA276217730702
:100C4000840738F09F5F5F4F220F331F441FAA1F96
:100C5000A9F335D00E2E3AF0E0E832D09150504052
:100C6000E695001CCAF72BD0FE2F29D0660F771F00
:100C7000881FBB1F261737074807AB07B0E809F0E6
:100C8000BB0B802DBF01FF2793585F4F3AF09E3F6B
:100C9000510578F00C9401070C944C075F3FE4F386
:100CA000983ED4F3869577956795B795F7959F5FAE
:100CB000C9F7880F911D9695879597F90895E1E0FA
:100CC000660F771F881FBB1F621773078407BA0759
:100CD00020F0621B730B840BBA0BEE1F88F7E095B4
:100CE00008950E94310788F09F5798F0B92F9927EF
:100CF000B751B0F0E1F0660F771F881F991F1AF007
:100D0000BA95C9F714C0B13091F00E944B07B1E019
:100D100008950C944B07672F782F8827B85F39F018
:100D2000B93FCCF3869577956795B395D9F73EF49F
:100D300090958095709561957F4F8F4F9F4F089547
:100D4000E89409C097FB3EF4909580957095619565
:100D50007F4F8F4F9F4F9923A9F0F92F96E9BB271B
:100D60009395F695879577956795B795F111F8CF97
:100D7000FAF4BB0F11F460FF1BC06F5F7F4F8F4F02
:100D80009F4F16C0882311F096E911C0772321F0F8
:100D90009EE8872F762F05C0662371F096E8862F90
:100DA00070E060E02AF09A95660F771F881FDAF7E7
:100DB000880F9695879597F90895990F0008550F14
:100DC000AA0BE0E8FEEF16161706E807F907C0F0D1
:100DD00012161306E407F50798F0621B730B840BD9
:100DE000950B39F40A2661F0232B242B252B21F4B3
:100DF00008950A2609F4A140A6958FEF811D811D53
:100E0000089597F99F6780E870E060E008959FEF8C
:100E100080EC089500240A94161617061806090691
:100E2000089500240A941216130614060506089560
:100E3000092E0394000C11F4882352F0BB0F40F4E8
:100E4000BF2B11F460FF04C06F5F7F4F8F4F9F4F28
:100E5000089557FD9058440F551F59F05F3F71F0AA
:100E60004795880F97FB991F61F09F3F79F0879511
:100E70000895121613061406551FF2CF4695F1DF9A
:100E800008C0161617061806991FF1CF869571052A
:100E9000610508940895E894BB2766277727CB015E
:100EA00097F908950E94DD0608F48FEF08950E94D7
:100EB0006A070C9418070E940A0738F00E9411076D
:100EC00020F0952311F00C9401070C9407071124CE
:100ED0000C944C070E94290770F3959FC1F3950F5E
:100EE00050E0551F629FF001729FBB27F00DB11DAE
:100EF000639FAA27F00DB11DAA1F649F6627B00D3E
:100F0000A11D661F829F2227B00DA11D621F739F26
:100F1000B00DA11D621F839FA00D611D221F749F34
:100F20003327A00D611D231F849F600D211D822F7B
:100F3000762F6A2F11249F5750409AF0F1F08823A2
:100F40004AF0EE0FFF1FBB1F661F771F881F9150CF
:100F50005040A9F79E3F510580F00C9401070C9476
:100F60004C075F3FE4F3983ED4F3869577956795F9
:100F7000B795F795E7959F5FC1F7FE2B880F911DF9
:100F80009695879597F908950E94DD06880B990B31
:060F90000895F894FFCF64
:100F96000000000027018700B4007401E500C300CB
:100FA600D7006E616E00696E66006F7666000D0A88
:020FB600000039
:00000001FF
